{
  "contractName": "notas",
  "abi": [
    {
      "inputs": [],
      "stateMutability": "nonpayable",
      "type": "constructor"
    },
    {
      "anonymous": false,
      "inputs": [
        {
          "indexed": false,
          "internalType": "bytes32",
          "name": "",
          "type": "bytes32"
        }
      ],
      "name": "alumno_evaluado",
      "type": "event"
    },
    {
      "anonymous": false,
      "inputs": [
        {
          "indexed": false,
          "internalType": "string",
          "name": "",
          "type": "string"
        }
      ],
      "name": "evento_revisiones",
      "type": "event"
    },
    {
      "inputs": [],
      "name": "my_string",
      "outputs": [
        {
          "internalType": "string",
          "name": "",
          "type": "string"
        }
      ],
      "stateMutability": "view",
      "type": "function",
      "constant": true
    },
    {
      "inputs": [],
      "name": "profesor",
      "outputs": [
        {
          "internalType": "address",
          "name": "",
          "type": "address"
        }
      ],
      "stateMutability": "view",
      "type": "function",
      "constant": true
    },
    {
      "inputs": [
        {
          "internalType": "string",
          "name": "_idAlumno",
          "type": "string"
        },
        {
          "internalType": "uint256",
          "name": "_nota",
          "type": "uint256"
        }
      ],
      "name": "Evaluar",
      "outputs": [],
      "stateMutability": "nonpayable",
      "type": "function"
    },
    {
      "inputs": [
        {
          "internalType": "string",
          "name": "_idAlumno",
          "type": "string"
        }
      ],
      "name": "VerNotas",
      "outputs": [
        {
          "internalType": "uint256",
          "name": "",
          "type": "uint256"
        }
      ],
      "stateMutability": "view",
      "type": "function",
      "constant": true
    },
    {
      "inputs": [
        {
          "internalType": "string",
          "name": "_idAlumno",
          "type": "string"
        }
      ],
      "name": "revision",
      "outputs": [],
      "stateMutability": "nonpayable",
      "type": "function"
    },
    {
      "inputs": [],
      "name": "VerRevisiones",
      "outputs": [
        {
          "internalType": "string[]",
          "name": "",
          "type": "string[]"
        }
      ],
      "stateMutability": "view",
      "type": "function",
      "constant": true
    }
  ],
  "bytecode": "0x60806040526040518060400160405280600781526020017f5269636172646f000000000000000000000000000000000000000000000000008152506001908051906020019061004f9291906100a2565b5034801561005c57600080fd5b50336000806101000a81548173ffffffffffffffffffffffffffffffffffffffff021916908373ffffffffffffffffffffffffffffffffffffffff160217905550610147565b828054600181600116156101000203166002900490600052602060002090601f016020900481019282601f106100e357805160ff1916838001178555610111565b82800160010185558215610111579182015b828111156101105782518255916020019190600101906100f5565b5b50905061011e9190610122565b5090565b61014491905b80821115610140576000816000905550600101610128565b5090565b90565b610af2806101566000396000f3fe608060405234801561001057600080fd5b50600436106100625760003560e01c8063040d9f601461006757806333731af6146100835780634f61d2d4146100b3578063ca981d91146100d1578063df096576146100ed578063f22044e61461010b575b600080fd5b610081600480360381019061007c9190610689565b610129565b005b61009d60048036038101906100989190610648565b610239565b6040516100aa9190610927565b60405180910390f35b6100bb610287565b6040516100c891906108e5565b60405180910390f35b6100eb60048036038101906100e69190610648565b610325565b005b6100f561039b565b604051610102919061088d565b60405180910390f35b6101136103c0565b60405161012091906108a8565b60405180910390f35b336000809054906101000a900473ffffffffffffffffffffffffffffffffffffffff1673ffffffffffffffffffffffffffffffffffffffff168173ffffffffffffffffffffffffffffffffffffffff16146101b9576040517f08c379a00000000000000000000000000000000000000000000000000000000081526004016101b090610907565b60405180910390fd5b6000836040516020016101cc9190610876565b6040516020818303038152906040528051906020012090508260026000838152602001908152602001600020819055507f9129eeeb684507aca017f10030b70e5bf86d129f417fcc5840348a957eb12cee8160405161022b91906108ca565b60405180910390a150505050565b6000808260405160200161024d9190610876565b6040516020818303038152906040528051906020012090506000600260008381526020019081526020016000205490508092505050919050565b60018054600181600116156101000203166002900480601f01602080910402602001604051908101604052809291908181526020018280546001816001161561010002031660029004801561031d5780601f106102f25761010080835404028352916020019161031d565b820191906000526020600020905b81548152906001019060200180831161030057829003601f168201915b505050505081565b60038190806001815401808255809150506001900390600052602060002001600090919091909150908051906020019061036092919061053a565b507f06c856f8778cb6072dd4b51015c1a616f87e63932b4b9d0690e645124063560c8160405161039091906108e5565b60405180910390a150565b6000809054906101000a900473ffffffffffffffffffffffffffffffffffffffff1681565b6060336000809054906101000a900473ffffffffffffffffffffffffffffffffffffffff1673ffffffffffffffffffffffffffffffffffffffff168173ffffffffffffffffffffffffffffffffffffffff1614610452576040517f08c379a000000000000000000000000000000000000000000000000000000000815260040161044990610907565b60405180910390fd5b6003805480602002602001604051908101604052809291908181526020016000905b82821015610530578382906000526020600020018054600181600116156101000203166002900480601f01602080910402602001604051908101604052809291908181526020018280546001816001161561010002031660029004801561051c5780601f106104f15761010080835404028352916020019161051c565b820191906000526020600020905b8154815290600101906020018083116104ff57829003601f168201915b505050505081526020019060010190610474565b5050505091505090565b828054600181600116156101000203166002900490600052602060002090601f016020900481019282601f1061057b57805160ff19168380011785556105a9565b828001600101855582156105a9579182015b828111156105a857825182559160200191906001019061058d565b5b5090506105b691906105ba565b5090565b6105dc91905b808211156105d85760008160009055506001016105c0565b5090565b90565b600082601f8301126105f057600080fd5b81356106036105fe8261096f565b610942565b9150808252602083016020830185838301111561061f57600080fd5b61062a838284610a52565b50505092915050565b60008135905061064281610aa5565b92915050565b60006020828403121561065a57600080fd5b600082013567ffffffffffffffff81111561067457600080fd5b610680848285016105df565b91505092915050565b6000806040838503121561069c57600080fd5b600083013567ffffffffffffffff8111156106b657600080fd5b6106c2858286016105df565b92505060206106d385828601610633565b9150509250929050565b60006106e98383610784565b905092915050565b6106fa81610a0c565b82525050565b600061070b826109ab565b61071581856109ce565b9350836020820285016107278561099b565b8060005b85811015610763578484038952815161074485826106dd565b945061074f836109c1565b925060208a0199505060018101905061072b565b50829750879550505050505092915050565b61077e81610a1e565b82525050565b600061078f826109b6565b61079981856109df565b93506107a9818560208601610a61565b6107b281610a94565b840191505092915050565b60006107c8826109b6565b6107d281856109f0565b93506107e2818560208601610a61565b6107eb81610a94565b840191505092915050565b6000610801826109b6565b61080b8185610a01565b935061081b818560208601610a61565b80840191505092915050565b60006108346012836109f0565b91507f4e6f207469656e6573207065726d69736f7300000000000000000000000000006000830152602082019050919050565b61087081610a48565b82525050565b600061088282846107f6565b915081905092915050565b60006020820190506108a260008301846106f1565b92915050565b600060208201905081810360008301526108c28184610700565b905092915050565b60006020820190506108df6000830184610775565b92915050565b600060208201905081810360008301526108ff81846107bd565b905092915050565b6000602082019050818103600083015261092081610827565b9050919050565b600060208201905061093c6000830184610867565b92915050565b6000604051905081810181811067ffffffffffffffff8211171561096557600080fd5b8060405250919050565b600067ffffffffffffffff82111561098657600080fd5b601f19601f8301169050602081019050919050565b6000819050602082019050919050565b600081519050919050565b600081519050919050565b6000602082019050919050565b600082825260208201905092915050565b600082825260208201905092915050565b600082825260208201905092915050565b600081905092915050565b6000610a1782610a28565b9050919050565b6000819050919050565b600073ffffffffffffffffffffffffffffffffffffffff82169050919050565b6000819050919050565b82818337600083830152505050565b60005b83811015610a7f578082015181840152602081019050610a64565b83811115610a8e576000848401525b50505050565b6000601f19601f8301169050919050565b610aae81610a48565b8114610ab957600080fd5b5056fea26469706673582212208e5c421fbde7acfc350337839b24f25607f2a819efe2403fa928357b9af5472564736f6c63430006060033",
  "immutableReferences": {},
  "source": "// SPDX-License-Identifier: MIT \npragma solidity  >=0.4.4 < 0.7.0; \npragma experimental ABIEncoderV2;  //para errores en los hash de variables\n\n\n// Empezamos el contrato \n\ncontract notas {\n    \n    //Direccion del profesor\n    address public profesor; \n    string public my_string = \"Ricardo\"; \n    \n    //constructor - Construir las variables iniciales del contrato. La primera direccion es la del profesor. \n    constructor () public {\n        profesor = msg.sender; //cuenta que va a desplegar el contrato. \n    }\n    \n    // Mapping para relacionar el hash de la identidad del alumno con su nota del examen. \n    mapping (bytes32 => uint) Notas; \n    \n    //Array para los alumnos que pidan revision de examen.\n    string [] revisiones; \n    \n    //Eventos \n    event alumno_evaluado(bytes32); \n    event evento_revisiones(string); \n    \n    //Funciones, con sus respectivas variables, para evaluar a los alumnos.\n    function Evaluar(string memory _idAlumno, uint _nota) public UnicamenteProfesor(msg.sender) {\n        // Hash del id del alumno;\n        bytes32 hash_idAlumno = keccak256(abi.encodePacked(_idAlumno)); \n        // Relacion entre el hash del id del alumno y su Notas\n        Notas[hash_idAlumno] = _nota; \n        // Emision del evento\n        emit alumno_evaluado(hash_idAlumno); \n    }\n    \n    //modificador para que solo pueda manipularlo el profesor\n    modifier UnicamenteProfesor(address _direccion) {\n        //Requiere que la direccion introducida por parámetro sea igual al owner(profesor)\n        require(_direccion == profesor, \"No tienes permisos\"); \n        _;//muy importante poner siempre la \"_\" al terminar un modifier\n    }\n    \n    //Funcion para ver las notas de los alumnos\n    function VerNotas(string memory _idAlumno) public view returns(uint) {  //tipo view porq DEVOLVEMOS un valor\n        bytes32 hash_idAlumno = keccak256(abi.encodePacked(_idAlumno)); \n        //Nota asociada al alumno\n        uint nota_alumno = Notas[hash_idAlumno]; \n        // Visualizar nota con el return\n        return nota_alumno; \n    }\n    \n    // Funcion para pedir revision del examen\n    function revision(string memory _idAlumno) public {\n        // Almacenamiento de la identidad del alumno en un array \n        revisiones.push(_idAlumno); \n        // Emision del evento\n        emit evento_revisiones(_idAlumno); \n    }  \n    \n    function VerRevisiones() public view UnicamenteProfesor(msg.sender) returns (string [] memory ) {\n        //resultado revisiones\n        return revisiones; \n    }\n        \n    \n}",
  "sourcePath": "/Users/ricardosardontoledo/Desktop/truffle-notas/contracts/notas.sol",
  "compiler": {
    "name": "solc",
    "version": "0.6.6+commit.6c089d02.Emscripten.clang"
  },
  "schemaVersion": "3.4.3",
  "updatedAt": "2021-11-15T23:56:03.109Z",
  "networkType": "ethereum",
  "devdoc": {
    "methods": {}
  },
  "userdoc": {
    "methods": {}
  }
}