{
  "contractName": "notas",
  "abi": [
    {
      "inputs": [],
      "stateMutability": "nonpayable",
      "type": "constructor"
    },
    {
      "anonymous": false,
      "inputs": [
        {
          "indexed": false,
          "internalType": "bytes32",
          "name": "",
          "type": "bytes32"
        }
      ],
      "name": "alumno_evaluado",
      "type": "event"
    },
    {
      "anonymous": false,
      "inputs": [
        {
          "indexed": false,
          "internalType": "string",
          "name": "",
          "type": "string"
        }
      ],
      "name": "evento_revisiones",
      "type": "event"
    },
    {
      "inputs": [],
      "name": "my_string",
      "outputs": [
        {
          "internalType": "string",
          "name": "",
          "type": "string"
        }
      ],
      "stateMutability": "view",
      "type": "function",
      "constant": true
    },
    {
      "inputs": [],
      "name": "profesor",
      "outputs": [
        {
          "internalType": "address",
          "name": "",
          "type": "address"
        }
      ],
      "stateMutability": "view",
      "type": "function",
      "constant": true
    },
    {
      "inputs": [
        {
          "internalType": "string",
          "name": "_subject",
          "type": "string"
        },
        {
          "internalType": "string",
          "name": "_idAlumno",
          "type": "string"
        },
        {
          "internalType": "uint256",
          "name": "_nota",
          "type": "uint256"
        }
      ],
      "name": "Evaluar",
      "outputs": [],
      "stateMutability": "nonpayable",
      "type": "function"
    },
    {
      "inputs": [
        {
          "internalType": "string",
          "name": "_subject",
          "type": "string"
        },
        {
          "internalType": "string",
          "name": "_idAlumno",
          "type": "string"
        }
      ],
      "name": "VerNotas",
      "outputs": [
        {
          "internalType": "uint256",
          "name": "",
          "type": "uint256"
        }
      ],
      "stateMutability": "view",
      "type": "function",
      "constant": true
    },
    {
      "inputs": [
        {
          "internalType": "string",
          "name": "_subject",
          "type": "string"
        },
        {
          "internalType": "string",
          "name": "_idAlumno",
          "type": "string"
        }
      ],
      "name": "revision",
      "outputs": [],
      "stateMutability": "nonpayable",
      "type": "function"
    },
    {
      "inputs": [
        {
          "internalType": "string",
          "name": "_subject",
          "type": "string"
        }
      ],
      "name": "VerRevisiones",
      "outputs": [
        {
          "internalType": "string[]",
          "name": "",
          "type": "string[]"
        }
      ],
      "stateMutability": "view",
      "type": "function",
      "constant": true
    }
  ],
  "bytecode": "0x60806040526040518060400160405280600781526020017f5269636172646f000000000000000000000000000000000000000000000000008152506001908051906020019061004f9291906100a2565b5034801561005c57600080fd5b50336000806101000a81548173ffffffffffffffffffffffffffffffffffffffff021916908373ffffffffffffffffffffffffffffffffffffffff160217905550610147565b828054600181600116156101000203166002900490600052602060002090601f016020900481019282601f106100e357805160ff1916838001178555610111565b82800160010185558215610111579182015b828111156101105782518255916020019190600101906100f5565b5b50905061011e9190610122565b5090565b61014491905b80821115610140576000816000905550600101610128565b5090565b90565b610c00806101566000396000f3fe608060405234801561001057600080fd5b50600436106100625760003560e01c806330362224146100675780634f61d2d414610097578063593cbcf0146100b557806395bb498f146100d15780639d3efa1f14610101578063df0965761461011d575b600080fd5b610081600480360381019061007c919061069b565b61013b565b60405161008e91906109b6565b60405180910390f35b61009f6102d3565b6040516100ac91906109f3565b60405180910390f35b6100cf60048036038101906100ca9190610748565b610371565b005b6100eb60048036038101906100e691906106dc565b610484565b6040516100f89190610a35565b60405180910390f35b61011b600480360381019061011691906106dc565b6104d5565b005b610125610568565b604051610132919061099b565b60405180910390f35b6060336000809054906101000a900473ffffffffffffffffffffffffffffffffffffffff1673ffffffffffffffffffffffffffffffffffffffff168173ffffffffffffffffffffffffffffffffffffffff16146101cd576040517f08c379a00000000000000000000000000000000000000000000000000000000081526004016101c490610a15565b60405180910390fd5b6003836040516101dd9190610960565b9081526020016040518091039020805480602002602001604051908101604052809291908181526020016000905b828210156102c7578382906000526020600020018054600181600116156101000203166002900480601f0160208091040260200160405190810160405280929190818152602001828054600181600116156101000203166002900480156102b35780601f10610288576101008083540402835291602001916102b3565b820191906000526020600020905b81548152906001019060200180831161029657829003601f168201915b50505050508152602001906001019061020b565b50505050915050919050565b60018054600181600116156101000203166002900480601f0160208091040260200160405190810160405280929190818152602001828054600181600116156101000203166002900480156103695780601f1061033e57610100808354040283529160200191610369565b820191906000526020600020905b81548152906001019060200180831161034c57829003601f168201915b505050505081565b336000809054906101000a900473ffffffffffffffffffffffffffffffffffffffff1673ffffffffffffffffffffffffffffffffffffffff168173ffffffffffffffffffffffffffffffffffffffff1614610401576040517f08c379a00000000000000000000000000000000000000000000000000000000081526004016103f890610a15565b60405180910390fd5b60008484604051602001610416929190610977565b6040516020818303038152906040528051906020012090508260026000838152602001908152602001600020819055507f9129eeeb684507aca017f10030b70e5bf86d129f417fcc5840348a957eb12cee8160405161047591906109d8565b60405180910390a15050505050565b600080838360405160200161049a929190610977565b604051602081830303815290604052805190602001209050600060026000838152602001908152602001600020549050809250505092915050565b6003826040516104e59190610960565b90815260200160405180910390208190806001815401808255809150506001900390600052602060002001600090919091909150908051906020019061052c92919061058d565b507f06c856f8778cb6072dd4b51015c1a616f87e63932b4b9d0690e645124063560c8160405161055c91906109f3565b60405180910390a15050565b6000809054906101000a900473ffffffffffffffffffffffffffffffffffffffff1681565b828054600181600116156101000203166002900490600052602060002090601f016020900481019282601f106105ce57805160ff19168380011785556105fc565b828001600101855582156105fc579182015b828111156105fb5782518255916020019190600101906105e0565b5b509050610609919061060d565b5090565b61062f91905b8082111561062b576000816000905550600101610613565b5090565b90565b600082601f83011261064357600080fd5b813561065661065182610a7d565b610a50565b9150808252602083016020830185838301111561067257600080fd5b61067d838284610b60565b50505092915050565b60008135905061069581610bb3565b92915050565b6000602082840312156106ad57600080fd5b600082013567ffffffffffffffff8111156106c757600080fd5b6106d384828501610632565b91505092915050565b600080604083850312156106ef57600080fd5b600083013567ffffffffffffffff81111561070957600080fd5b61071585828601610632565b925050602083013567ffffffffffffffff81111561073257600080fd5b61073e85828601610632565b9150509250929050565b60008060006060848603121561075d57600080fd5b600084013567ffffffffffffffff81111561077757600080fd5b61078386828701610632565b935050602084013567ffffffffffffffff8111156107a057600080fd5b6107ac86828701610632565b92505060406107bd86828701610686565b9150509250925092565b60006107d3838361086e565b905092915050565b6107e481610b1a565b82525050565b60006107f582610ab9565b6107ff8185610adc565b93508360208202850161081185610aa9565b8060005b8581101561084d578484038952815161082e85826107c7565b945061083983610acf565b925060208a01995050600181019050610815565b50829750879550505050505092915050565b61086881610b2c565b82525050565b600061087982610ac4565b6108838185610aed565b9350610893818560208601610b6f565b61089c81610ba2565b840191505092915050565b60006108b282610ac4565b6108bc8185610afe565b93506108cc818560208601610b6f565b6108d581610ba2565b840191505092915050565b60006108eb82610ac4565b6108f58185610b0f565b9350610905818560208601610b6f565b80840191505092915050565b600061091e601283610afe565b91507f4e6f207469656e6573207065726d69736f7300000000000000000000000000006000830152602082019050919050565b61095a81610b56565b82525050565b600061096c82846108e0565b915081905092915050565b600061098382856108e0565b915061098f82846108e0565b91508190509392505050565b60006020820190506109b060008301846107db565b92915050565b600060208201905081810360008301526109d081846107ea565b905092915050565b60006020820190506109ed600083018461085f565b92915050565b60006020820190508181036000830152610a0d81846108a7565b905092915050565b60006020820190508181036000830152610a2e81610911565b9050919050565b6000602082019050610a4a6000830184610951565b92915050565b6000604051905081810181811067ffffffffffffffff82111715610a7357600080fd5b8060405250919050565b600067ffffffffffffffff821115610a9457600080fd5b601f19601f8301169050602081019050919050565b6000819050602082019050919050565b600081519050919050565b600081519050919050565b6000602082019050919050565b600082825260208201905092915050565b600082825260208201905092915050565b600082825260208201905092915050565b600081905092915050565b6000610b2582610b36565b9050919050565b6000819050919050565b600073ffffffffffffffffffffffffffffffffffffffff82169050919050565b6000819050919050565b82818337600083830152505050565b60005b83811015610b8d578082015181840152602081019050610b72565b83811115610b9c576000848401525b50505050565b6000601f19601f8301169050919050565b610bbc81610b56565b8114610bc757600080fd5b5056fea26469706673582212207fa995bb0dc934d315020623a96ed15bc5d14ee981ed74ab01cb32cd8408fb1f64736f6c63430006060033",
  "immutableReferences": {},
  "source": "// SPDX-License-Identifier: MIT \npragma solidity  >=0.4.4 < 0.7.0; \npragma experimental ABIEncoderV2;  //para errores en los hash de variables\n\n\n// Empezamos el contrato \n\ncontract notas {\n    \n    //Direccion del profesor\n    address public profesor; \n    string public my_string = \"Ricardo\"; \n    \n    //constructor - Construir las variables iniciales del contrato. La primera direccion es la del profesor. \n    constructor () public {\n        profesor = msg.sender; //cuenta que va a desplegar el contrato. \n    }\n    \n    //Mapping para relacionar el hash de la identidad del alumno con su nota del examen. \n    mapping (bytes32 => uint) Notas; \n    \n    //Mapping array de los alumnos que pidan revisiones de examen para su asignatura \n    mapping (string => string []) revisiones; \n    \n    //Eventos \n    event alumno_evaluado(bytes32); \n    event evento_revisiones(string); \n    \n    //Funciones, con sus respectivas variables, para evaluar a los alumnos.\n    function Evaluar(string memory _subject, string memory _idAlumno, uint _nota) public UnicamenteProfesor(msg.sender) {\n        // Hash del id del alumno;\n        bytes32 hash_idAlumno = keccak256(abi.encodePacked(_subject,_idAlumno)); \n        // Relacion entre el hash del id del alumno y su Notas\n        Notas[hash_idAlumno] = _nota; \n        // Emision del evento\n        emit alumno_evaluado(hash_idAlumno); \n    }\n    \n    //modificador para que solo pueda manipularlo el profesor\n    modifier UnicamenteProfesor(address _direccion) {\n        //Requiere que la direccion introducida por parámetro sea igual al owner(profesor)\n        require(_direccion == profesor, \"No tienes permisos\"); \n        _;//muy importante poner siempre la \"_\" al terminar un modifier\n    }\n    \n    //Funcion para ver las notas de los alumnos\n    function VerNotas(string memory _subject, string memory _idAlumno) public view returns(uint) {  //tipo view porq DEVOLVEMOS un valor\n        bytes32 hash_idAlumno = keccak256(abi.encodePacked(_subject,_idAlumno)); \n        //Nota asociada al alumno\n        uint nota_alumno = Notas[hash_idAlumno]; \n        // Visualizar nota con el return\n        return nota_alumno; \n    }\n    \n    // Funcion para pedir revision del examen\n    function revision(string memory _subject, string memory _idAlumno) public {\n        // Almacenamiento de la identidad del alumno en un array \n        revisiones[_subject].push(_idAlumno); \n        // Emision del evento\n        emit evento_revisiones(_idAlumno); \n    }  \n    \n    function VerRevisiones(string memory _subject) public view UnicamenteProfesor(msg.sender) returns (string [] memory ) {\n        //resultado revisiones\n        return revisiones[_subject]; \n    }\n        \n    \n}",
  "sourcePath": "/Users/ricardosardontoledo/Desktop/truffle-notas/contracts/notas.sol",
  "compiler": {
    "name": "solc",
    "version": "0.6.6+commit.6c089d02.Emscripten.clang"
  },
  "schemaVersion": "3.4.3",
  "updatedAt": "2021-11-16T11:55:13.639Z",
  "networkType": "ethereum",
  "devdoc": {
    "methods": {}
  },
  "userdoc": {
    "methods": {}
  }
}